:020000040800F2
:1000000000130020D10100082F1400085913000824
:100010002D14000861020008291A000800000000E1
:10002000000000000000000000000000390100088E
:1000300063020008000000007D01000805150008AB
:10004000EB010008EB010008EB010008EB010008E0
:10005000EB010008EB010008EB010008EB010008D0
:10006000EB010008EB010008EB010008EB010008C0
:10007000EB010008EB010008EB010008EB010008B0
:10008000EB010008EB010008EB010008EB010008A0
:10009000EB010008EB010008EB010008EB01000890
:1000A000EB010008EB010008EB010008EB01000880
:1000B000EB010008EB010008EB010008EB01000870
:1000C000EB010008EB010008EB010008EB01000860
:1000D000EB010008051A0008111A00081D1A000893
:1000E000EB010008EB010008EB010008EB01000840
:1000F000EB01000800000000EB010008EB01000824
:10010000EB010008EB010008EB010008EB0100081F
:10011000EB010008EB010008EB0100080000000003
:10012000EB010008DFF80CD000F088F80048004729
:10013000711A000800130020224B19680868B0E803
:10014000F00F80F30988BFF36F8F4FF0000080F34A
:1001500011884EF00D0E7047000000000648006840
:10016000006880F3088862B661B6BFF34F8FBFF3B3
:100170006F8F00DF00BF00BF08ED00E0EFF30980E4
:10018000BFF36F8F0F4B1A6820E9F00F106008B5AE
:100190004FF0500080F31188BFF34F8FBFF36F8F84
:1001A00002F014F94FF0000080F31188BDE8084018
:1001B00019680868B0E8F00F80F30988BFF36F8F03
:1001C000704700BF24000020EFF305807047000057
:1001D0000648804706480047FEE7FEE7FEE7FEE7E1
:1001E000FEE7FEE7FEE7FEE7FEE7FEE7751500081F
:1001F0002501000840EA01039B0703D009E008C974
:10020000121F08C0042AFAD203E011F8013B00F8DB
:10021000013B521EF9D27047D2B201E000F8012B27
:10022000491EFBD270470022F6E710B513460A4676
:1002300004461946FFF7F0FF204610BD064C074D57
:1002400006E0E06840F0010394E8070098471034A6
:10025000AC42F6D3FFF76AFFE42A0008042B00083B
:10026000FEE770470A2301460422014801F00CB85A
:100270008C0100202DE9F84FDFF880B100234FF00A
:10028000010C4FF0030A4FF00F090BF1040EAEE022
:100290000CFA03F614EA060270D04C68022C01D066
:1002A000122C11D1DC0800EB84073C6A5D07ED0ECF
:1002B00009FA05F824EA0804D1F8108008FA05F8CC
:1002C00048EA0408C7F8208007685D0091F80480B8
:1002D0000AFA05F408F00308A74308FA05F848EA03
:1002E0000708C0F800804F68012F05D0022F03D007
:1002F000112F01D0122F11D18768D1F80C80A7439C
:1003000008FA05F848EA0708C0F808804768B743C4
:100310000E79C6F300169E403E434660C668A6436B
:100320008C68AC403443C4604C68E4005ED5344C07
:10033000256845F001052560246823F0030504F0D5
:10034000010400942F4C2E19B4689D072F0F09FA51
:1003500007F5AC432C4DA84201D100251FE02B4DE1
:10036000A84201D101251AE0294DA84201D1022558
:1003700015E0284DA84202D1032510E036E0264DB5
:10038000A84201D104250AE0244DA84201D1052547
:1003900005E0234DA84201D1062500E00725BD4018
:1003A0002543B560DBF800405D464E689443F60394
:1003B00000D514432C60DEF8004075464E68944327
:1003C000B60300D514432C600C4D08352C684E68DC
:1003D0009443F60200D514432C60084D0C352C686C
:1003E0004E689443B60200D514432C605B1C0A6827
:1003F0001446DA407FF44CAFBDE8F88F00040140AA
:100400002038024000000140000002400004024089
:1004100000080240000C024000100240001402409C
:100420000018024042694A40426170470AB1816146
:1004300070470904FBE700000148006870470000AE
:100440001C00002002480168491C01607047000040
:100450001C00002010B5032000F06CF80F2000F005
:1004600005F800F017F8002010BD000010B5044694
:1004700007484FF47A710068B0FBF1F000F074FDAA
:1004800000222146501E00F035F8002010BD00006B
:1004900020000020104882B0016841F00041016056
:1004A000016801F000410091011F0A6842F0010259
:1004B0000A60096801F001010091016841F0805172
:1004C00001600068002200F0805000900F21901E13
:1004D00002B000F00FB800002438024000F01F0204
:1004E000012191404009800000F1E020C0F8001196
:1004F00070470000F0B40E4B1B680C46C3F3022398
:10050000C3F10705042D00D90425191D072901D2BF
:10051000002300E0DB1E012606FA05F1491E2140FA
:1005200099409E40761E16403143F0BC00F080BFDB
:100530000CED00E0064900F0070208684FF6FF03E3
:10054000184040EA0220034A104308607047000048
:100550000CED00E00000FA052DE9F047DFF8BC8162
:1005600005460E46D8F8000000F00100B04214D253
:10057000012E05D1D8F8001041F00401C8F8001090
:10058000D8F8001021F001013143C8F80010D8F864
:10059000000000F00100B04271D12878604C800763
:1005A00005D52068A96820F0F0000843206028786D
:1005B000C00771D05A4A5A4B69680120083A2C3357
:1005C000022910D003292ED001292FD05FEA40271D
:1005D00097FAA7FCBCFA8CFC4CF0200C5FEA5C1C80
:1005E00004D0126803E04FF40037F1E71A6897FA75
:1005F000A7F3B3FA83F303F01F039840024262D0DB
:10060000206820F0030008432060FFF715FF6968A9
:10061000074641F28830022910D003291CD0012955
:10062000814626D034E04FF00077D1E70227CFE7AC
:10063000FFF702FFC11B494501D926E0814620682A
:10064000C0F381000228F3D126E000BFFFF7F4FEDB
:10065000C11B494501D918E081462068C0F38100DB
:100660000328F3D118E000BFFFF7E6FEC11B4945A0
:100670000BD82068C0F381000128F5D10CE022E0FE
:10068000FFF7DAFEC11B494502D90320BDE8F08718
:10069000206810F00C0FF3D1D8F80010404601F09C
:1006A0000101B14211D9012E03D1016841F00401C9
:1006B0000160016821F0010131430160006800F030
:1006C0000100B04201D00120E0E72878400705D5BD
:1006D0002068E96820F4E06008432060287800077B
:1006E00006D52068296920F4605040EAC1002060E6
:1006F00000F04CF82168F02292FAA2F201F0F00129
:10070000B2FA82F2D140074A515CC84006490860FB
:100710000F20FFF7ABFE0020B8E70000003C0240CE
:1007200008380240B12A0008200000200848094982
:10073000006809684FF4E06292FAA2F201F4E06105
:10074000B2FA82F2D140044A515CC84070470000BE
:100750002000002008380240C12A00080848094942
:10076000006809684FF4605292FAA2F201F46051F5
:10077000B2FA82F2D140044A515CC840704700008E
:100780002000002008380240C12A00081E4A1168D3
:1007900001F00C00042813D0082813D00C2813D023
:1007A000101F006800F460414FF4604090FAA0F020
:1007B000B0FA80F0C1404FF40040491C88407047B7
:1007C00012487047124870474FF4701393FAA3F31E
:1007D00001F47010B3FA83F3D8400E4B01F44001DA
:1007E0001268185C4FF4400393FAA3F3B3FA83F34F
:1007F000D940491CD20301D5054A00E0034A5043C1
:10080000B0FBF1F070470000083802400024F4000B
:1008100000127A00A82A00082DE9F84F0746007850
:10082000FB4EFC4DC0074FF0010428D0F8480830BB
:1008300001684FF40038C1F38101022907D0016833
:10084000C1F3810103291BD10068C00318D598FAB0
:10085000A8F0B0FA80F040F02000400901D03068E4
:1008600000E0286898FAA8F1B1FA81F101F01F01BF
:1008700004FA01F108425CD0786800287BD058E087
:10088000786801280AD008B1052811D0306820F412
:1008900080303060306820F4802002E0306840F41E
:1008A00080303060786828B3FFF7C6FD81460BE0E2
:1008B000306840F480203060F0E700BFFFF7BCFDF7
:1008C000A0EB0900642872D898FAA8F0B0FA80F07A
:1008D00040F02000400901D0306800E0286898FA14
:1008E000A8F1B1FA81F101F01F0104FA01F1084207
:1008F000E4D01EE0FFF7A0FD814605E0FFF79CFD78
:10090000A0EB09006428DED898FAA8F0B0FA80F0CD
:1009100040F02000400901D0306800E0286898FAD3
:10092000A8F1B1FA81F101F01F0104FA01F10842C6
:10093000E4D13878DFF8E08280074FF0000B4FF009
:1009400002095FD5B24808300168C1F3810101296D
:1009500007D00168C1F3810103291CD10068C003DD
:1009600019D499FAA9F0B0FA80F040F020004009BB
:1009700002D0306801E086E0286899FAA9F1B1FA5E
:1009800081F101F01F0104FA01F108422BD0F8684F
:10099000012878D127E0F868A8B394FAA4F0B0FA57
:1009A00080F048F82040FFF747FD824606E066E108
:1009B000FFF742FDA0EB0A00022884D899FAA9F1BA
:1009C000B1FA81F141F02001490901D0316800E01C
:1009D000296899FAA9F0B0FA80F000F01F0004FA33
:1009E00000F00142E4D08A48001D01684FF4F8533A
:1009F00093FAA3F33A69B3FA83F321F4F8519A40D6
:100A00001143016025E0FFE794FAA4F1B1FA81F106
:100A100048F821B0FFF710FD824605E0FFF70CFD16
:100A2000A0EB0A000228C8D899FAA9F0B0FA80F021
:100A300040F02000400901D0306800E0286899FAB1
:100A4000A9F1B1FA81F101F01F0104FA01F10842A4
:100A5000E4D138784FF4007AC0067CD56C48083071
:100A6000006810F00C0F0FD0B9694FF480700029A6
:100A700072D090FAA0F0B0FA80F048F82040FFF76A
:100A8000DBFC00907EE087E09AFAAAF0B0FA80F0F2
:100A900040F02000400901D0306800E028689AFA50
:100AA000AAF1B1FA81F101F01F0104FA01F1084243
:100AB00002D0B86900286FD05548396A001D006817
:100AC00000F4604081421AD9084600F0C1FC0028B9
:100AD00062D14F48001D01683A6A21F46041114318
:100AE000016001684FF07F4393FAA3F3FA69B3FA08
:100AF00083F321F07F419A401143016018E044489C
:100B0000001D026822F460420A43026001684FF04F
:100B10007F4393FAA3F3FA69B3FA83F321F07F4199
:100B20009A4011430160386A00F092FC0028CFD14E
:100B30004FF4604191FAA1F1386AB1FA81F1C840ED
:100B40004FF40041401C8140314808300068F022D9
:100B500000F0F00001E070E040E092FAA2F2B2FA98
:100B600082F2D0402D4A105CC1402D4801600F2018
:100B7000FFF77CFC61E000BFFFF75EFC0099401AC4
:100B800002287CD89AFAAAF0B0FA80F040F020004F
:100B9000400902D0306801E0BCE128689AFAAAF165
:100BA000B1FA81F101F01F0104FA01F10842E3D02A
:100BB0001748001D01683A6A21F460411143016041
:100BC00001684FF07F4393FAA3F3FA69B3FA83F312
:100BD00021F07F419A40114301602EE090FAA0F08D
:100BE000B0FA80F048F820B0FFF726FC009005E04E
:100BF000FFF722FC0099401A0228C2D89AFAAAF0FC
:100C0000B0FA80F040F0200040090BD030680AE0D4
:100C1000003802403438024000004742B12A000840
:100C20002000002028689AFAAAF1B1FA81F101F0B7
:100C30001F0104FA01F10842DAD13878000753D5D0
:100C4000786948B394FAA4F0B0FA80F008EB800019
:100C5000C0F88046FFF7F0FB009005E0FFF7ECFBE3
:100C60000099401A02288CD899FAA9F0B0FA80F0BD
:100C700040F04000B4EB501F02D1306801E08EE03C
:100C8000286899FAA9F1B1FA81F101F01F0104FA7B
:100C900001F21042E2D027E094FAA4F1B1FA81F116
:100CA00008EB8101C1F880B6FFF7C6FB009005E0B4
:100CB000FFF7C2FB0099401A022870D899FAA9F0F0
:100CC000B0FA80F040F04000B4EB501F01D1306822
:100CD00000E0286899FAA9F1B1FA81F101F01F0149
:100CE00004FA01F21042E3D1387840077BD59B48E3
:100CF0004FF000090068C0000AD49848016841F02C
:100D00008051016000684FF0010900F080500090B0
:100D100093480168C90511D4016841F480710160EC
:100D2000FFF78AFB009005E0FFF786FB0099401A69
:100D3000642834D88A480068C005F5D5B868012809
:100D40000AD008B1052811D0286820F480702860E6
:100D5000286820F4806002E0286840F480702860F1
:100D6000B86848B3FFF768FB00900DE0286840F4CE
:100D700080602860F0E700BFFFF75EFB0099411A32
:100D800041F2883081420AD89AFAAAF0B0FA80F08B
:100D900040F04000B4EB501F02D1306801E095E014
:100DA00028689AFAAAF1B1FA81F101F01F0104FA58
:100DB00001F21042E0D022E0FFF73EFB009007E096
:100DC000FFF73AFB0099411A41F2883081427DD801
:100DD0009AFAAAF0B0FA80F040F04000B4EB501F4D
:100DE00002D1306801E012E028689AFAAAF1B1FA5B
:100DF00081F101F01F0104FA01F21042E0D1B9F1D2
:100E0000000F04D05548016821F080510160786AD4
:100E1000E8B3DFF84891A9F11C09D9F80010C1F333
:100E20008101032976D002284FF080714FF0007ABB
:100E300058460BD091FAA1F1B1FA81F148F821009E
:100E4000FFF7FAFAB046074656466DE04FF080715C
:100E500091FAA1F1B1FA81F18A0042495050FFF7AD
:100E6000EBFAB3468046564606E000BFFFF7E4FAC9
:100E7000A0EB0800022854D896FAA6F0B0FA80F049
:100E800040F02000400903D0DBF8000001E061E001
:100E9000286896FAA6F1B1FA81F101F01F0104FA6F
:100EA00001F10842E2D1D7E90A103A6BD9F80030D3
:100EB000014323F47D031A431143C9F800104FF096
:100EC000807090FAA0F0B0FA80F000E029E0810094
:100ED00024480C50FFF7B0FA074604E0FFF7ACFADD
:100EE000C01B02281DD896FAA6F0B0FA80F040F098
:100EF0002000400902D0DBF8000000E0286896FAE4
:100F0000A6F1B1FA81F101F01F0104FA01F10842E2
:100F1000E4D01FE020E000BFFFF78EFAC01B0228DC
:100F200002D90320BDE8F88F96FAA6F0B0FA80F057
:100F300040F02000400902D0D8F8000000E0286806
:100F400096FAA6F1B1FA81F101F01F0104FA01F15C
:100F50000842E1D10020E5E70120E3E72438024020
:100F6000007000400000474210B5401EB0F1807F85
:100F700001D3012010BD4FF0E02460610F21601704
:100F800000F056FA0020A06107202061002010BD6B
:100F90007047000038B5044600680168C26811F067
:100FA000010F02F4807204D01AB1E16B41F001012B
:100FB000E1630168C1F34002416901F0010122B11E
:100FC00019B1E26B42F00402E2630268C2F38002EC
:100FD00022B119B1E26B42F00202E2630268C2F38D
:100FE000C00222B119B1E16B41F00801E16301686F
:100FF000C068C1F3401100F0200019B110B12046C3
:1010000000F0E0FA20680168C068C1F3C01100F088
:10101000800019B110B1204600F078FC2168086802
:10102000CA68C0F3801002F04002012570B16AB1B5
:10103000CA68204622F04002CA6094F8391032296A
:1010400011D080F8395000BF00F084F9E06B00281F
:1010500008D0206801684068009084F83950204624
:10106000FFF796FF38BD222180F83910ECE770B504
:10107000040004D094F83900002510B106E00120E6
:1010800070BD84F83850204600F020F8022084F823
:1010900039002068C16821F40051C160204600F089
:1010A000E5FA2068016921F49041016120684169F5
:1010B00021F02A0141612068C16841F40051C160FA
:1010C000E563012084F83900002070BDF0B587B0D9
:1010D000044614216846FFF7A6F8384A27683849BD
:1010E0000223012403250726364897421DD10A1DF5
:1010F000176847F480471760126802F4804205922F
:101100000A6842F001020A60096801F001010591D4
:1011100069028DE87A006946FFF7ACF800220521E4
:101120002520FFF7E7F9252021E0254ADFF898C0C0
:10113000083267451FD1176847F4003717601268F7
:1011400002F4003205920A6842F001020A6009685E
:1011500001F0010105910C218DE87A006946FFF745
:1011600089F8002205212620FFF7C4F92620FFF781
:10117000B5F907B0F0BD15488742FAD1106840F4C0
:1011800080201060106800F480200590086840F00E
:10119000020008600868694600F0020005904FF4FC
:1011A00040608DE879000A48FFF764F800220521C5
:1011B0002720FFF79FF92720D9E7000000380140DA
:1011C0001C3802400000024000440040004800403B
:1011D0000004024090F83930012B01D0122B2CD1A1
:1011E00039B332B390F83830012B26D0012380F880
:1011F000383081628285C2850021C16390F8392030
:10120000122A18D05FF0220280F8392080F83810B6
:101210000168CA6842F48072CA6001684A6942F093
:1012200001024A610068C16841F02001C1600020EC
:101230007047012070473222E6E702207047000025
:1012400038B50E4800210091024603780C4C5068D6
:101250002354401C5060C82800D951606946D068AA
:1012600001F050FA0098002807D006494FF080504E
:101270000860BFF34F8FBFF36F8F38BD00000020B1
:101280008400002004ED00E02DE9F047044690F8CA
:10129000390099460D46012801D0222858D12DB396
:1012A00022B394F83800012852D0012684F838601F
:1012B0000027E76394F8390022281AD05FF0120063
:1012C00084F83900A284E2844FF48058E08C4B46C5
:1012D000401EE084A0684FF0000240454FF08001BE
:1012E000204613D100F045FB08BB04E00120BDE817
:1012F000F0873220E4E728882168C0F308004860BE
:10130000206908B16D1C08E0AD1C06E000F031FB5F
:1013100068B9216815F8010B4860E08C0028D5D128
:101320004B4600224021204600F023FB08B1032059
:10133000DDE794F83900322806D084F8396000BF20
:1013400084F838700020D2E7222084F83900F7E7CB
:101350000220CCE700BF7047FEE7000010B586B062
:1013600003220021012001F0AFF8084CE06000B931
:1013700000BF142206496846FEF73CFF002168467C
:1013800000F0D9FBA06006B010BD000000000020F6
:10139000802A000830B587B014216846FEF743FF65
:1013A0001E48016841F004010160016801F0040178
:1013B0000591016841F020010160016801F0200100
:1013C0000591016841F001010160016801F001012E
:1013D0000591016841F0020101600068104D00F0C4
:1013E00002000590002220212846FFF71FF84FF445
:1013F000005000900B480024CDE9010469460A48DA
:10140000FEF738FF202000900120CDE90104694655
:1014100028460394FEF72EFF07B030BD1C3802406B
:10142000000002400000111000080240FEE7704773
:101430000907090E002806DA00F00F0000F1E0208D
:1014400080F8141D704700F1E02080F80014704708
:1014500038B51C49002309681B4A11F0F00F23D14D
:1014600018491C310C68E500184C03D5216801F4BB
:10147000C0540EE00D6845F080550D600D6805F014
:101480008055009524680D6804F4C05425F08055FB
:101490000D60B4F5C05F07D1B0F5404F04D11068BE
:1014A000012340F004001060106820F00100184390
:1014B0001060106800F00100984201D0012038BD92
:1014C000002038BD08380240003C02400070004057
:1014D000094C4FF4FA750948FEF7C4FE0A230522A9
:1014E00006490748FFF7D0FE20212046FEF79AFF65
:1014F000284600F097FEEEE70000024014000020AE
:101500004C01002010B5FEF79DFFBDE8104000F033
:1015100008BB000010B592B034216846FEF783FE88
:1015200014210DA8FEF77FFE1148016821F4C05177
:1015300041F400610160012103910220102100901B
:1015400000240491CDE9090480040B9000010C9063
:101550006846FFF761F90F200D900320CDE90E04D6
:10156000109401210DA81194FEF7F6FF12B010BDE2
:10157000007000400F48016841F4807101600D491E
:1015800008310A680C4B1A400A6002680B4B1A407B
:101590000260026822F480220260086820F47D0064
:1015A00008600020091D086005494FF000600860D0
:1015B00070470000003802400CC0FF88FEFFFEEEBE
:1015C00008ED00E010B590F83910222903D0322937
:1015D00001D0022010BD8168B1F5805F11D0016992
:1015E000002901681FD0496801F07F03816A4A1C05
:1015F00082620B70C18D491E0904090CC18518D087
:1016000030E00269816A002A0268526805D0D2B2CD
:101610000A80816A491C8162ECE7C2F308020A80F1
:10162000816A891CF7E74A68816A4B1C83620A70E9
:10163000E0E70168CA6822F02002CA6090F8391019
:10164000322911D00168CA6822F48072CA60016828
:101650004A6922F001024A615FF0010180F8391005
:10166000FFF7EEFD002010BD1221F7E72DE9F04154
:10167000044600680169E26821F4405111430161A8
:101680002169A068E2690843616911430843216840
:10169000CA6849F20C639A430243CA6020684169F0
:1016A000A26921F4407111434161E1696425B1F5FA
:1016B000004F954821684FF032083DD081427AD1E1
:1016C000FFF74CF800EBC00101EB001061688900E6
:1016D000B0FBF1F6FFF742F800EBC00101EB0010A0
:1016E00061688900B0FBF1F0B0FBF5F06FF0180114
:1016F000484306EB800108EB0110B0FBF5F000F069
:10170000F006FFF72BF800EBC00101EB0010616859
:101710008900B0FBF1F0B0FBF5F006EB0016FFF727
:101720001DF800EBC00101EB001061688900B0FBFF
:10173000F1F7FFF713F8D0E081423DD1FFF70EF843
:1017400000EBC00101EB001061684900B0FBF1F053
:10175000B0FBF5F00601FFF701F800EBC00101EB6B
:10176000001061684900B0FBF1F7FEF7F7FF00EBEE
:10177000C00101EB001061684900B0FBF1F0B0FB63
:10178000F5F06FF01801484307EB800108EBC1004A
:10179000B0FBF5F000F0F80006EB4006FEF7DEFFC8
:1017A00000EBC00101EB001061684900B0FBF1F7EC
:1017B000FEF7D4FF3CE055E0FEF7B8FF00EBC001B8
:1017C00001EB001061684900B0FBF1F0B0FBF5F0EF
:1017D0000601FEF7ABFF00EBC00101EB00106168F2
:1017E0004900B0FBF1F7FEF7A1FF00EBC00101EBF0
:1017F000001061684900B0FBF1F0B0FBF5F06FF04C
:101800001801484307EB800108EBC100B0FBF5F07D
:1018100000F0F80006EB4006FEF788FF00EBC00181
:1018200001EB001061684900B0FBF1F7FEF77EFFA5
:1018300000EBC00101EB001061684900B0FBF1F062
:10184000B0FBF5F06FF01801484307EB800108EB9F
:10185000C100B0FBF5F000F007002168304488605B
:10186000BDE8F081FEF762FF00EBC00101EB001064
:1018700061688900B0FBF1F6FEF758FF00EBC0018C
:1018800001EB001061688900B0FBF1F0B0FBF5F0EE
:101890006FF01801484306EB800108EB0110B0FB24
:1018A000F5F000F0F006FEF741FF00EBC00101EBA0
:1018B000001061688900B0FBF1F0B0FBF5F006EBB9
:1018C0000016FEF733FF00EBC00101EB001061686A
:1018D0008900B0FBF1F7FEF729FF00EBC00101EB37
:1018E000001061688900B0FBF1F0B0FBF5F06FF01B
:1018F0001801484307EB800108EB0110B0FBF5F03D
:1019000000F00F00A9E700000038014090F83910FE
:10191000122903D0322901D0022070478168B1F525
:10192000805F016A0BD04A1C02620268097851602C
:10193000C18C491E0904090CC1840ED017E0098826
:101940000268C1F30801516001690029016A02D0EF
:10195000491C0162ECE7891CFBE70168CA6822F0B8
:101960008002CA600068C16841F04001C160002087
:1019700070472DE9F0471D4690460E460446FEF797
:101980005BFD07465FEA08004FF000094FF00108D1
:1019900008D030E0681C05D095B1FEF74DFDC01BA6
:1019A000A8420DD82068006836EA0000F2D127E08E
:1019B000681C20D025B1FEF73FFDC01BA8421AD9F4
:1019C0002068C16821F08001C1602068C16821F0F1
:1019D0002001C1602068C16821F48071C160206865
:1019E000416921F00101416184F8398084F838901F
:1019F0000320BDE8F0872068006836EA0000D7D0F1
:101A00000020F6E70148FFF7C5BA00004C010020AE
:101A10000148FFF7BFBA00008C0100200148FFF722
:101A2000B9BA0000CC010020FEE702E008C8121F8E
:101A300008C1002AFAD170477047002001E001C1B7
:101A4000121F002AFBD17047074D4FF0FF340122CF
:101A500005490648FFF7BEFB002322461946E86801
:101A600000F056FDF3E70000000000204C010020CC
:101A700086B0FEF7EFFCFFF74DFDFFF78BFC1E482D
:101A80001C494FF4E13500240160C0E901540C26E3
:101A9000C460C0E904468461C461FFF7E8FA1648EF
:101AA000164940380160C0E90154C460C0E90446E9
:101AB0008461C461FFF7DBFA0F48114940300160CF
:101AC000C0E90154C460C0E904468461C461FFF701
:101AD000CEFA14220B496846FEF78CFB00216846BB
:101AE00000F029F808490860FFF738FC00F014F806
:101AF000FEE70000004400408C0100200038014057
:101B000000480040942A00081000002001460020F0
:101B1000842900D0C81C704710B500F01BFC0020C1
:101B200010BD10B500F09EFE012803D0BDE81040A6
:101B300000F0B4BC10BD3EB504460D46B0F9080037
:101B4000FFF7E4FF02A9CDE90001208A2B4682B20B
:101B5000D4E9001000F05AFE012801D000203EBD5B
:101B600002983EBD2DE9F041184C0F460546E66847
:101B70002068001D00F076FA38B9206890F82C1023
:101B800001208840216981432161681C07D137B158
:101B90002168BDE8F0410E48091D00F09BBA20689D
:101BA0003544B5424560216805D2A06BBDE8F041DF
:101BB000091D00F077BA606B091D00F073FAA06A86
:101BC000854200D2A562BDE8F0810000240000201B
:101BD000E80200202DE9F041054600F087FA2E4C7E
:101BE000A068401CA06020682C4F10B1606940B311
:101BF0002DE02560A068012829D1002606EB86008B
:101C000007EB800000F040FA761C072EF6D323483D
:101C10008C3000F039FA2148A03000F035FA1F4826
:101C2000B43000F031FA1D48C83000F02DFA1B48DE
:101C3000DC3000F029FA19488C3060631430A0635E
:101C400005E02068E96AC06A884200D82560606AB9
:101C5000401C6062E96A01202269884010432061CB
:101C600001EB810007EB8000291D00F033FA00F042
:101C70005DFA606900280CD02068E96AC06A884271
:101C800007D207494FF080500860BFF34F8FBFF372
:101C90006F8FBDE8F0810000240000200C020020BE
:101CA00004ED00E070B5114E114C17E000F086FB1A
:101CB0003068B8B100F082FE00F018FAF068C5682C
:101CC000281D00F0CFF9A068401EA0606068401E8B
:101CD000606000F02BFA284600F01FF860680028CA
:101CE000E4D170BD00F06AFEF8E70000D4020020E5
:101CF0002400002030B4026C0B46002A0BD0C168CF
:101D00001144C1604468A14201D30168C16030BC84
:101D10001846FEF76FBA30BC704710B50446006B2A
:101D200000F018FA2046BDE8104000F013BA000099
:101D300010484FF44061420706D0C01D0D4920F005
:101D40000700411AC1F540610B4A00230144C2E972
:101D500000030839103A21F0070111604B600B6055
:101D60000B1AC0E9001393604FF000405360D0603D
:101D700070470000FC02002070000020074C4FF06C
:101D80008056074DFFF78EFF20680128FAD92E6094
:101D9000BFF34F8FBFF36F8FF4E700000C020020FA
:101DA00004ED00E02DE9F0479A46DDE9098481461B
:101DB0006FF00303206B03EB82021044089D20F0B8
:101DC0000706700707D0502080F31188BFF34F8FAC
:101DD000BFF36F8FFEE723180A5C83F834200A5C98
:101DE00012B1401C1028F6D3002784F84370072D49
:101DF00000D30625E562C4E91157201D00F04FF914
:101E000004F1180000F04BF92461C5F10700646289
:101E1000A061E76484F8507052464946304600F0AD
:101E20000FF92060B8F1000F01D0C8F80040BDE8FC
:101E3000F087000030B5114900E011460A6882427F
:101E4000FBD34B685C18844203D140681844486057
:101E5000084643681C18944209D1084C103C246879
:101E6000A24209D052681A4442600A6812680260AD
:101E7000814200D0086030BD0460F9E770000020A6
:101E800010B5044600F032F9A06B28B15FF00004F1
:101E900000F04CF9204610BD0124F9E70648416BDB
:101EA000096829B1416BC968C9684968816270478E
:101EB0004FF0FF31FAE70000240000200848406896
:101EC000401C4FF0500080F3118804D0BFF34F8FB7
:101ED000BFF36F8FFEE7BFF34F8FBFF36F8FFEE748
:101EE000780000202DE9F041044600F0FFF894F955
:101EF000455004F1240609E0606A48B1304600F01C
:101F000023FD08B100F0B4F96D1E6DB2002DF3DCB5
:101F10004FF0FF3684F8456000F008F900F0E6F86D
:101F200094F9445004F1100709E0206948B138469B
:101F300000F00AFD08B100F09BF96D1E6DB2002D96
:101F4000F3DC84F84460BDE8F04100F0EFB8000035
:101F50002DE9F0410546002700F030FA314E306897
:101F600008B9FFF7E5FEF06805424BD1C5B3083567
:101F700068070ED005F00700C0F1080005446807A7
:101F800007D0502080F31188BFF34F8FBFF36F8FBE
:101F9000FEE72DB37068854234D8224810300146E0
:101FA0000C6801E020460C466168A94202D2216813
:101FB0000029F7D131688C4224D00768216801607C
:101FC00060680837411B10290FD96019420708D0F3
:101FD000502080F31188BFF34F8FBFF36F8FFEE760
:101FE00010E041606560FFF725FF61687068401A86
:101FF0007060B268904200D2B060F0680143002087
:10200000C4E9000100F0DAFC780707D0502080F323
:102010001188BFF34F8FBFF36F8FFEE73846BDE8DF
:10202000F0810000600000200449086818B10868C9
:10203000826C521C826408687047000024000020F3
:1020400010B5031F4FF080741C601B1F21F00101AD
:102050001960191F024B0B60143940380A6010BD1B
:10206000BD1E0008D0E9013201699A60D0E9012360
:102070005A604A68824201D182684A600022026145
:102080000868401E0860704700F108014FF0FF32F9
:10209000C0E90112C16001610021016070470021A7
:1020A0000161704730B50B685A1C02D000F108027C
:1020B00002E0026904E02246546825689D42FAD98C
:1020C00053684B6099608A60516008610168491CDF
:1020D000016030BD42684A6093688B6093685960C4
:1020E000916008610168491C01607047502080F3CD
:1020F0001188BFF34F8FBFF36F8F0A494868401CA8
:10210000486001280CD10848006810F0FF0F07D084
:10211000502080F31188BFF34F8FBFF36F8FFEE71E
:10212000704700007800002004ED00E0084948688E
:1021300028B1401E486001D180F3118870475020BB
:1021400080F31188BFF34F8FBFF36F8FFEE700005E
:102150007800002070B5002827D0144DA0F10804A5
:102160006168E868014207D1502080F31188BFF30D
:102170004F8FBFF36F8FFEE722683AB1502080F394
:102180001188BFF34F8FBFF36F8FFEE7814361600C
:1021900000F014F960686968084468602046FFF739
:1021A00049FEBDE8704000F009BC70BD6000002031
:1021B00006484FF47A710068B0FBF1F14FF0E0206F
:1021C000491E416107210161704700002000002085
:1021D00010B5FDF7F9FF114910280ED300F1E020EA
:1021E00090F8F0030A78904207D2502080F31188CB
:1021F000BFF34F8FBFF36F8FFEE709480068896810
:1022000000F4E060884207D9502080F31188BFF3C2
:102210004F8FBFF36F8FFEE710BD000078000020E6
:102220000CED00E010B5020014D00F48006B38B17F
:10223000502080F31188BFF34F8FBFF36F8FFEE7FD
:1022400000F0BCF800211046FFF78CFC00F0B6FB54
:10225000002807D105494FF080500860BFF34F8F29
:10226000BFF36F8F10BD00002400002004ED00E0DC
:1022700001490120C86170472400002010B50C46B8
:1022800050B1094909681831FFF70CFF2046BDE835
:1022900010400121FFF766BC502080F31188BFF386
:1022A0004F8FBFF36F8FFEE72400002070B504004E
:1022B00039D01D4DE06A2968C96A884233D2A069C5
:1022C000002804DB2868C06AC0F10700A061E16A49
:1022D000164E01EB8101606906EB810188421FD136
:1022E000201DFFF7BFFE012150B9E06A00EB80021C
:1022F00056F8222022B92A6901FA00F082432A61A5
:102300002868C06AE0622A6981401143296100EBB4
:10231000800006EB8000211DBDE87040FFF7DABEAB
:102320002868C06AE06270BD240000200C02002012
:1023300028B107490A6A0260C968416070475020A5
:1023400080F31188BFF34F8FBFF36F8FFEE700005C
:10235000240000201CB515480024CDE90040234688
:10236000802213A1144800F051FA012809D0401C22
:102370001AD1502080F31188BFF34F8FBFF36F8FB6
:10238000FEE7502080F31188BFF34F8FBFF36F8FAC
:1023900006484FF0FF312C38816201214161C46051
:1023A000BDE81C4000F040B81CBD000050000020FB
:1023B00049444C45000000007D1D00080248016BA7
:1023C000491C016370470000240000201448016B81
:1023D00011B10121C16170470021C1610169B1FAE8
:1023E00081F1C1F11F0101EB81020E4951F8223048
:1023F0006BB101EB820101F108034A6852684A603F
:102400009A4201D152684A60D168016070475020F9
:1024100080F31188BFF34F8FBFF36F8FFEE700008B
:10242000240000200C0200201CB5194908780190F6
:10243000FF20087008788DF800009DF80000154A0C
:1024400000F0500010700720906005E09DF800300B
:102450005B008DF80030401E9DF800301B06F5D45F
:10246000000200F4E0609060019808700A4801687A
:1024700041F470010160016841F070410160FFF7B3
:1024800097FE00205060FDF769FE00201CBD000093
:1024900000E400E07800002020ED00E010B55020BE
:1024A00080F31188BFF34F8FBFF36F8F00F0E8F90F
:1024B00018B104494FF080500860002080F3118863
:1024C00010BD000004ED00E070B50E46050013D00D
:1024D000D6B105FB06F04830FFF73AFD040009D0FD
:1024E00004F1480120468EB10160C0E90F56012178
:1024F00000F0C4F8204670BD502080F31188BFF36F
:102500004F8FBFF36F8FFEE70020E4E70060ECE73A
:102510002DE9FF4F002683B09B468A46040003D076
:10252000BAF1000F08D011E0502080F31188BFF3FA
:102530004F8FBFF36F8FFEE7206C38B1502080F3D0
:102540001188BFF34F8FBFF36F8FFEE700F08AF95A
:10255000DFF824814FF000094FF0805748B9059803
:1025600038B1502080F31188BFF34F8FBFF36F8FC6
:10257000FEE7FFF7BBFDA56B45B351462046E66875
:10258000FFF7B8FBBBF1000F13D0E660606A50B1F3
:1025900004F1240000F0D8F928B1C8F80070BFF3A6
:1025A0004F8FBFF36F8FFFF7C1FD012007B0BDE86C
:1025B000F08F6D1EA563206810B9FFF735FD6060D0
:1025C00020690028EFD004F11000E3E7059808B176
:1025D0001EB106E0FFF7AAFD27E06846FFF7A8FE58
:1025E0000126FFF7A3FDFFF7E9FEFFF77FFD94F952
:1025F0004400401C01D184F8449094F94500401CEB
:1026000001D184F84590FFF791FD05A9684600F0D7
:10261000C7F8002820460AD0FFF764FC00F0CEF986
:102620002046FFF72DFC0028A3D00020BEE7FFF7CF
:1026300027FCD8B1206830B9FFF758FD6068FFF774
:1026400035FEFFF773FD04F124000599FFF716FE30
:102650002046FFF747FC00F0B1F9002889D1C8F8FF
:102660000070BFF34F8FBFF36F8F82E72046FFF7F5
:1026700039FC00F0A3F97CE704ED00E070B50D46ED
:10268000040025D0FFF732FDD4E90F20216802FBBA
:10269000001161600021A1632168A1600A46D4E9AC
:1026A0000F01401E00FB0121E16021464FF0FF3089
:1026B00001F8440F487004F110008DB1FFF7E4FCFD
:1026C00004F12400FFF7E0FCFFF730FD012070BDAE
:1026D000502080F31188BFF34F8FBFF36F8FFEE759
:1026E00021690029F0D000F02FF90028ECD004492E
:1026F0004FF080500860BFF34F8FBFF36F8FE3E759
:1027000004ED00E070B50E46040009D0206C78B1ED
:10271000502080F31188BFF34F8FBFF36F8FFEE718
:10272000502080F31188BFF34F8FBFF36F8FFEE708
:10273000206848B9606838B1502080F31188BFF331
:102740004F8FBFF36F8FFEE7FFF742FD5020EFF38F
:10275000118580F31188BFF34F8FBFF36F8FA16B8B
:10276000E06B884218D994F94500491CA163411CCB
:1027700004D0401C84F8450001200EE0606A002867
:10278000FAD004F1240000F0DFF80028F4D0002E85
:10279000F2D001203060EFE7002085F3118870BD92
:1027A00070B50D46040019D005B3FFF79FFC164A1B
:1027B000D1682868431C0FD02368126A934202D064
:1027C00062688A421AD96268891A814216D2401A0E
:1027D00028602046FFF7ACFD002410E0502080F375
:1027E0001188BFF34F8FBFF36F8FFEE7502080F348
:1027F0001188BFF34F8FBFF36F8FFEE70124FFF700
:1028000095FC204670BD0000240000202DE9FF5FEC
:102810008346DDE90E87994616468A469000FFF703
:1028200097FB05001AD05420FFF792FB040012D04A
:1028300025630021CDE90241CDE900874B463246B0
:1028400051465846FFF7AEFA2046FFF7C3F901207C
:1028500004B0BDE8F09F2846FFF77CFC4FF0FF3046
:10286000F6E700000548416919B1006B18B1002076
:1028700070470120704702207047000024000020AC
:102880002DE9F0412E4C0027206B40B1A069401C7F
:10289000A061E06900B101273846BDE8F081E66833
:1028A000761CE66013D1606B006838B1502080F36D
:1028B0001188BFF34F8FBFF36F8FFEE7606BA16B83
:1028C0006163A063206A401C2062FFF7E7FAA06AF8
:1028D000DFF87080864209D3606B006880B1606B5E
:1028E000C068C568686886420DD2A0622068C06A68
:1028F00000EB800158F821000128CAD90127C8E758
:102900004FF0FF30F1E7281DFFF7ACFBA86A18B1C4
:1029100005F11800FFF7A6FBE86A01212269814052
:102920001143216100EB800108EB8100291DFFF7B5
:10293000D1FBE86A2168C96A8842CDD30127CBE779
:10294000240000200C0200202DE9F041C068C4687A
:10295000ACB104F118000746FFF784FB154D286B56
:102960000126A0B139461448FFF7B4FBE06A296894
:10297000C96A88421CD90120EE61BDE8F08150206F
:1029800080F31188BFF34F8FBFF36F8FFEE7201DD9
:10299000FFF768FBE16A2A6906FA01F01043286133
:1029A00001EB81000449B43901EB8000211DDBE714
:1029B0000020E2E724000020C00200202DE9F047BB
:1029C0002C4D00242746286B38B1FFF78FFB286B6E
:1029D000401E2863286B40B146E0502080F31188E8
:1029E000BFF34F8FBFF36F8FFEE7A968224E012020
:1029F000D1B3A6F1B40980463068E8B1F068C46884
:102A000004F11800FFF72EFB201DFFF72BFBE06AF7
:102A10002A6908FA00F11143296100EB800109EBF2
:102A20008100211DFFF756FBE06A2968C96A8842C8
:102A3000E2D3C5F81C80DFE70CB1FFF72FFAAC69D1
:102A400044B14646FFF71CFF00B1EE61641EF9D1A8
:102A50000020A861E86938B10849012738070860F3
:102A6000BFF34F8FBFF36F8FFFF760FB3846BDE8B2
:102A7000F087000024000020C002002004ED00E0E8
:102A8000CC2A0008491A00080200000000000000DB
:102A900080000000D82A0008D114000800000000BF
:102AA0000000000080000000030406080C1018203D
:102AB00030000000000000000001020304060708C7
:102AC0000900000000010203040000007561727437
:102AD0005461736B0000000064656661756C74542A
:102AE00061736B00042B00080000002084000000CC
:102AF0002A1A0008882B0008840000207C1200009D
:102B00003A1A000800000000000000000000000069
:102B1000000000000000000041540D0A0000000009
:102B20000000000068FF1F0000000000000000001F
:102B30000000000000000000000000000000000095
:102B40000000000000000000000000000000000085
:102B50000000000000000000000000000000000075
:102B60000000000000000000000000000000000065
:102B70000000000000000000000000000000000055
:082B8000AAAAAAAA00000000A5
:0400000508000125C9
:00000001FF
