:020000040800F2
:10000000B0110020D101000847130008A912000810
:1000100045130008610200080D19000800000000E7
:10002000000000000000000000000000390100088E
:1000300063020008000000007D01000801140008B0
:10004000EB010008EB010008EB010008EB010008E0
:10005000EB010008EB010008EB010008EB010008D0
:10006000EB010008EB010008EB010008EB010008C0
:10007000EB010008EB010008EB010008EB010008B0
:10008000EB010008EB010008EB010008EB010008A0
:10009000EB010008EB010008EB010008EB01000890
:1000A000EB010008EB010008EB010008EB01000880
:1000B000EB010008EB010008EB010008EB01000870
:1000C000EB010008EB010008EB010008EB01000860
:1000D000EB010008EB01000801190008EB01000822
:1000E000EB010008EB010008EB010008EB01000840
:1000F000EB01000800000000EB010008EB01000824
:10010000EB010008EB010008EB010008EB0100081F
:10011000EB010008EB010008EB0100080000000003
:10012000EB010008DFF80CD000F088F80048004729
:10013000DD190008B0110020224B19680868B0E8EA
:10014000F00F80F30988BFF36F8F4FF0000080F34A
:1001500011884EF00D0E7047000000000648006840
:10016000006880F3088862B661B6BFF34F8FBFF3B3
:100170006F8F00DF00BF00BF08ED00E0EFF30980E4
:10018000BFF36F8F0F4B1A6820E9F00F106008B5AE
:100190004FF0500080F31188BFF34F8FBFF36F8F84
:1001A00002F08EF84FF0000080F31188BDE808409F
:1001B00019680868B0E8F00F80F30988BFF36F8F03
:1001C000704700BF14000020EFF305807047000067
:1001D0000648804706480047FEE7FEE7FEE7FEE7E1
:1001E000FEE7FEE7FEE7FEE7FEE7FEE77114000824
:1001F0002501000840EA01039B0703D009E008C974
:10020000121F08C0042AFAD203E011F8013B00F8DB
:10021000013B521EF9D27047D2B201E000F8012B27
:10022000491EFBD270470022F6E710B513460A4676
:1002300004461946FFF7F0FF204610BD064C074D57
:1002400006E0E06840F0010394E8070098471034A6
:10025000AC42F6D3FFF76AFF38260008582600089C
:10026000FEE770470A2301460422014800F0B4BFAC
:10027000740000202DE9F84FDFF880B100234FF023
:10028000010C4FF0030A4FF00F090BF1040EAEE022
:100290000CFA03F614EA060270D04C68022C01D066
:1002A000122C11D1DC0800EB84073C6A5D07ED0ECF
:1002B00009FA05F824EA0804D1F8108008FA05F8CC
:1002C00048EA0408C7F8208007685D0091F80480B8
:1002D0000AFA05F408F00308A74308FA05F848EA03
:1002E0000708C0F800804F68012F05D0022F03D007
:1002F000112F01D0122F11D18768D1F80C80A7439C
:1003000008FA05F848EA0708C0F808804768B743C4
:100310000E79C6F300169E403E434660C668A6436B
:100320008C68AC403443C4604C68E4005ED5344C07
:10033000256845F001052560246823F0030504F0D5
:10034000010400942F4C2E19B4689D072F0F09FA51
:1003500007F5AC432C4DA84201D100251FE02B4DE1
:10036000A84201D101251AE0294DA84201D1022558
:1003700015E0284DA84202D1032510E036E0264DB5
:10038000A84201D104250AE0244DA84201D1052547
:1003900005E0234DA84201D1062500E00725BD4018
:1003A0002543B560DBF800405D464E689443F60394
:1003B00000D514432C60DEF8004075464E68944327
:1003C000B60300D514432C600C4D08352C684E68DC
:1003D0009443F60200D514432C60084D0C352C686C
:1003E0004E689443B60200D514432C605B1C0A6827
:1003F0001446DA407FF44CAFBDE8F88F00040140AA
:100400002038024000000140000002400004024089
:1004100000080240000C024000100240001402409C
:100420000018024042694A40426170470AB1816146
:1004300070470904FBE700000148006870470000AE
:100440000C00002002480168491C01607047000050
:100450000C00002010B5032000F06CF80F2000F015
:1004600005F800F017F8002010BD000010B5044694
:1004700007484FF47A710068B0FBF1F000F074FDAA
:1004800000222146501E00F035F8002010BD00006B
:1004900010000020104882B0016841F00041016066
:1004A000016801F000410091011F0A6842F0010259
:1004B0000A60096801F001010091016841F0805172
:1004C00001600068002200F0805000900F21901E13
:1004D00002B000F00FB800002438024000F01F0204
:1004E000012191404009800000F1E020C0F8001196
:1004F00070470000F0B40E4B1B680C46C3F3022398
:10050000C3F10705042D00D90425191D072901D2BF
:10051000002300E0DB1E012606FA05F1491E2140FA
:1005200099409E40761E16403143F0BC00F00CBF4F
:100530000CED00E0064900F0070208684FF6FF03E3
:10054000184040EA0220034A104308607047000048
:100550000CED00E00000FA052DE9F047DFF8BC8162
:1005600005460E46D8F8000000F00100B04214D253
:10057000012E05D1D8F8001041F00401C8F8001090
:10058000D8F8001021F001013143C8F80010D8F864
:10059000000000F00100B04271D12878604C800763
:1005A00005D52068A96820F0F0000843206028786D
:1005B000C00771D05A4A5A4B69680120083A2C3357
:1005C000022910D003292ED001292FD05FEA40271D
:1005D00097FAA7FCBCFA8CFC4CF0200C5FEA5C1C80
:1005E00004D0126803E04FF40037F1E71A6897FA75
:1005F000A7F3B3FA83F303F01F039840024262D0DB
:10060000206820F0030008432060FFF715FF6968A9
:10061000074641F28830022910D003291CD0012955
:10062000814626D034E04FF00077D1E70227CFE7AC
:10063000FFF702FFC11B494501D926E0814620682A
:10064000C0F381000228F3D126E000BFFFF7F4FEDB
:10065000C11B494501D918E081462068C0F38100DB
:100660000328F3D118E000BFFFF7E6FEC11B4945A0
:100670000BD82068C0F381000128F5D10CE022E0FE
:10068000FFF7DAFEC11B494502D90320BDE8F08718
:10069000206810F00C0FF3D1D8F80010404601F09C
:1006A0000101B14211D9012E03D1016841F00401C9
:1006B0000160016821F0010131430160006800F030
:1006C0000100B04201D00120E0E72878400705D5BD
:1006D0002068E96820F4E06008432060287800077B
:1006E00006D52068296920F4605040EAC1002060E6
:1006F00000F04CF82168F02292FAA2F201F0F00129
:10070000B2FA82F2D140074A515CC84006490860FB
:100710000F20FFF7ABFE0020B8E70000003C0240CE
:100720000838024005260008100000200848094942
:10073000006809684FF4E06292FAA2F201F4E06105
:10074000B2FA82F2D140044A515CC84070470000BE
:100750001000002008380240152600080848094902
:10076000006809684FF4605292FAA2F201F46051F5
:10077000B2FA82F2D140044A515CC840704700008E
:100780001000002008380240152600081E4A116893
:1007900001F00C00042813D0082813D00C2813D023
:1007A000101F006800F460414FF4604090FAA0F020
:1007B000B0FA80F0C1404FF40040491C88407047B7
:1007C00012487047124870474FF4701393FAA3F31E
:1007D00001F47010B3FA83F3D8400E4B01F44001DA
:1007E0001268185C4FF4400393FAA3F3B3FA83F34F
:1007F000D940491CD20301D5054A00E0034A5043C1
:10080000B0FBF1F070470000083802400024F4000B
:1008100000127A00FC2500082DE9F84F0746007801
:10082000FB4EFC4DC0074FF0010428D0F8480830BB
:1008300001684FF40038C1F38101022907D0016833
:10084000C1F3810103291BD10068C00318D598FAB0
:10085000A8F0B0FA80F040F02000400901D03068E4
:1008600000E0286898FAA8F1B1FA81F101F01F01BF
:1008700004FA01F108425CD0786800287BD058E087
:10088000786801280AD008B1052811D0306820F412
:1008900080303060306820F4802002E0306840F41E
:1008A00080303060786828B3FFF7C6FD81460BE0E2
:1008B000306840F480203060F0E700BFFFF7BCFDF7
:1008C000A0EB0900642872D898FAA8F0B0FA80F07A
:1008D00040F02000400901D0306800E0286898FA14
:1008E000A8F1B1FA81F101F01F0104FA01F1084207
:1008F000E4D01EE0FFF7A0FD814605E0FFF79CFD78
:10090000A0EB09006428DED898FAA8F0B0FA80F0CD
:1009100040F02000400901D0306800E0286898FAD3
:10092000A8F1B1FA81F101F01F0104FA01F10842C6
:10093000E4D13878DFF8E08280074FF0000B4FF009
:1009400002095FD5B24808300168C1F3810101296D
:1009500007D00168C1F3810103291CD10068C003DD
:1009600019D499FAA9F0B0FA80F040F020004009BB
:1009700002D0306801E086E0286899FAA9F1B1FA5E
:1009800081F101F01F0104FA01F108422BD0F8684F
:10099000012878D127E0F868A8B394FAA4F0B0FA57
:1009A00080F048F82040FFF747FD824606E066E108
:1009B000FFF742FDA0EB0A00022884D899FAA9F1BA
:1009C000B1FA81F141F02001490901D0316800E01C
:1009D000296899FAA9F0B0FA80F000F01F0004FA33
:1009E00000F00142E4D08A48001D01684FF4F8533A
:1009F00093FAA3F33A69B3FA83F321F4F8519A40D6
:100A00001143016025E0FFE794FAA4F1B1FA81F106
:100A100048F821B0FFF710FD824605E0FFF70CFD16
:100A2000A0EB0A000228C8D899FAA9F0B0FA80F021
:100A300040F02000400901D0306800E0286899FAB1
:100A4000A9F1B1FA81F101F01F0104FA01F10842A4
:100A5000E4D138784FF4007AC0067CD56C48083071
:100A6000006810F00C0F0FD0B9694FF480700029A6
:100A700072D090FAA0F0B0FA80F048F82040FFF76A
:100A8000DBFC00907EE087E09AFAAAF0B0FA80F0F2
:100A900040F02000400901D0306800E028689AFA50
:100AA000AAF1B1FA81F101F01F0104FA01F1084243
:100AB00002D0B86900286FD05548396A001D006817
:100AC00000F4604081421AD9084600F04DFC00282D
:100AD00062D14F48001D01683A6A21F46041114318
:100AE000016001684FF07F4393FAA3F3FA69B3FA08
:100AF00083F321F07F419A401143016018E044489C
:100B0000001D026822F460420A43026001684FF04F
:100B10007F4393FAA3F3FA69B3FA83F321F07F4199
:100B20009A4011430160386A00F01EFC0028CFD1C2
:100B30004FF4604191FAA1F1386AB1FA81F1C840ED
:100B40004FF40041401C8140314808300068F022D9
:100B500000F0F00001E070E040E092FAA2F2B2FA98
:100B600082F2D0402D4A105CC1402D4801600F2018
:100B7000FFF77CFC61E000BFFFF75EFC0099401AC4
:100B800002287CD89AFAAAF0B0FA80F040F020004F
:100B9000400902D0306801E0BCE128689AFAAAF165
:100BA000B1FA81F101F01F0104FA01F10842E3D02A
:100BB0001748001D01683A6A21F460411143016041
:100BC00001684FF07F4393FAA3F3FA69B3FA83F312
:100BD00021F07F419A40114301602EE090FAA0F08D
:100BE000B0FA80F048F820B0FFF726FC009005E04E
:100BF000FFF722FC0099401A0228C2D89AFAAAF0FC
:100C0000B0FA80F040F0200040090BD030680AE0D4
:100C100000380240343802400000474205260008F0
:100C20001000002028689AFAAAF1B1FA81F101F0C7
:100C30001F0104FA01F10842DAD13878000753D5D0
:100C4000786948B394FAA4F0B0FA80F008EB800019
:100C5000C0F88046FFF7F0FB009005E0FFF7ECFBE3
:100C60000099401A02288CD899FAA9F0B0FA80F0BD
:100C700040F04000B4EB501F02D1306801E08EE03C
:100C8000286899FAA9F1B1FA81F101F01F0104FA7B
:100C900001F21042E2D027E094FAA4F1B1FA81F116
:100CA00008EB8101C1F880B6FFF7C6FB009005E0B4
:100CB000FFF7C2FB0099401A022870D899FAA9F0F0
:100CC000B0FA80F040F04000B4EB501F01D1306822
:100CD00000E0286899FAA9F1B1FA81F101F01F0149
:100CE00004FA01F21042E3D1387840077BD59B48E3
:100CF0004FF000090068C0000AD49848016841F02C
:100D00008051016000684FF0010900F080500090B0
:100D100093480168C90511D4016841F480710160EC
:100D2000FFF78AFB009005E0FFF786FB0099401A69
:100D3000642834D88A480068C005F5D5B868012809
:100D40000AD008B1052811D0286820F480702860E6
:100D5000286820F4806002E0286840F480702860F1
:100D6000B86848B3FFF768FB00900DE0286840F4CE
:100D700080602860F0E700BFFFF75EFB0099411A32
:100D800041F2883081420AD89AFAAAF0B0FA80F08B
:100D900040F04000B4EB501F02D1306801E095E014
:100DA00028689AFAAAF1B1FA81F101F01F0104FA58
:100DB00001F21042E0D022E0FFF73EFB009007E096
:100DC000FFF73AFB0099411A41F2883081427DD801
:100DD0009AFAAAF0B0FA80F040F04000B4EB501F4D
:100DE00002D1306801E012E028689AFAAAF1B1FA5B
:100DF00081F101F01F0104FA01F21042E0D1B9F1D2
:100E0000000F04D05548016821F080510160786AD4
:100E1000E8B3DFF84891A9F11C09D9F80010C1F333
:100E20008101032976D002284FF080714FF0007ABB
:100E300058460BD091FAA1F1B1FA81F148F821009E
:100E4000FFF7FAFAB046074656466DE04FF080715C
:100E500091FAA1F1B1FA81F18A0042495050FFF7AD
:100E6000EBFAB3468046564606E000BFFFF7E4FAC9
:100E7000A0EB0800022854D896FAA6F0B0FA80F049
:100E800040F02000400903D0DBF8000001E061E001
:100E9000286896FAA6F1B1FA81F101F01F0104FA6F
:100EA00001F10842E2D1D7E90A103A6BD9F80030D3
:100EB000014323F47D031A431143C9F800104FF096
:100EC000807090FAA0F0B0FA80F000E029E0810094
:100ED00024480C50FFF7B0FA074604E0FFF7ACFADD
:100EE000C01B02281DD896FAA6F0B0FA80F040F098
:100EF0002000400902D0DBF8000000E0286896FAE4
:100F0000A6F1B1FA81F101F01F0104FA01F10842E2
:100F1000E4D01FE020E000BFFFF78EFAC01B0228DC
:100F200002D90320BDE8F88F96FAA6F0B0FA80F057
:100F300040F02000400902D0D8F8000000E0286806
:100F400096FAA6F1B1FA81F101F01F0104FA01F15C
:100F50000842E1D10020E5E70120E3E72438024020
:100F6000007000400000474210B5401EB0F1807F85
:100F700001D3012010BD4FF0E02460610F21601704
:100F800000F0E2F90020A06107202061002010BDE0
:100F90007047000038B5044600680168C26811F067
:100FA000010F02F4807204D01AB1E16B41F001012B
:100FB000E1630168C1F34002416901F0010122B11E
:100FC00019B1E26B42F00402E2630268C2F38002EC
:100FD00022B119B1E26B42F00202E2630268C2F38D
:100FE000C00222B119B1E16B41F00801E16301686F
:100FF000C068C1F3401100F0200019B110B12046C3
:1010000000F05EFA20680168C068C1F3C01100F00A
:10101000800019B110B1204600F0F6FB2168086885
:10102000CA68C0F3801002F04002012570B16AB1B5
:10103000CA68204622F04002CA6094F8391032296A
:1010400011D080F8395000BF00F02CF9E06B002877
:1010500008D0206801684068009084F83950204624
:10106000FFF796FF38BD222180F83910ECE770B504
:10107000040004D094F83900002510B106E00120E6
:1010800070BD84F83850204600F020F8022084F823
:1010900039002068C16821F40051C160204600F089
:1010A00063FA2068016921F4904101612068416977
:1010B00021F02A0141612068C16841F40051C160FA
:1010C000E563012084F83900002070BD10B586B0BA
:1010D000044614216846FFF7A6F81749206888429D
:1010E00028D11648016841F400310160006800F41D
:1010F0000030059011480838016841F00101016095
:101100000068694600F0010005900C200090022064
:1011100001900120029003200390072004900848CA
:10112000FFF7A8F8002205212620FFF7E3F9262083
:10113000FFF7D4F906B010BD004400402438024047
:101140000000024090F83930012B01D0122B2CD135
:1011500039B332B390F83830012B26D0012380F810
:10116000383081628285C2850021C16390F83920C0
:10117000122A18D05FF0220280F8392080F8381047
:101180000168CA6842F48072CA6001684A6942F024
:1011900001024A610068C16841F02001C16000207D
:1011A0007047012070473222E6E7022070470000B6
:1011B000074910B50A231A46A1F1400000F00CF8C7
:1011C0000448017809B1002100E00121017010BD3F
:1011D000B4000020000000202DE9F047044690F8FC
:1011E000390099460D46012801D0222858D12DB347
:1011F00022B394F83800012852D0012684F83860D0
:101200000027E76394F8390022281AD05FF0120013
:1012100084F83900A284E2844FF48058E08C4B4675
:10122000401EE084A0684FF0000240454FF080016E
:10123000204613D100F01BFB08BB04E00120BDE8F1
:10124000F0873220E4E728882168C0F3080048606E
:10125000206908B16D1C08E0AD1C06E000F007FB3A
:1012600068B9216815F8010B4860E08C0028D5D1D9
:101270004B4600224021204600F0F9FA08B1032035
:10128000DDE794F83900322806D084F8396000BFD1
:1012900084F838700020D2E7222084F83900F7E77C
:1012A0000220CCE700BF7047FEE7000030B587B0F2
:1012B00014216846FEF7B7FF1E48016841F004019B
:1012C0000160016801F004010591016841F020010D
:1012D0000160016801F020010591016841F0010100
:1012E0000160016801F001010591016841F002010E
:1012F00001600068104D00F00200059000222021DE
:101300002846FFF793F84FF4005000900B48002454
:10131000CDE9010469460A48FEF7ACFF20200090A1
:101320000120CDE90104694628460394FEF7A2FF97
:1013300007B030BD1C380240000002400000111010
:1013400000080240FEE770470907090E002806DA88
:1013500000F00F0000F1E02080F8141D704700F14C
:10136000E02080F80014704738B51C490023096854
:101370001B4A11F0F00F23D118491C310C68E5000D
:10138000184C03D5216801F4C0540EE00D6845F0F7
:1013900080550D600D6805F08055009524680D6836
:1013A00004F4C05425F080550D60B4F5C05F07D13A
:1013B000B0F5404F04D11068012340F004001060E4
:1013C000106820F0010018431060106800F0010060
:1013D000984201D0012038BD002038BD08380240B5
:1013E000003C024000700040044C20212046FFF7E2
:1013F00019F8C82000F06CFEF7E70000000002407A
:1014000010B5FFF71FF8BDE8104000F041BB000029
:1014100010B592B034216846FEF705FF14210DA8DF
:10142000FEF701FF1148016821F4C05141F4006149
:1014300001600121039102201021009000240491F9
:10144000CDE9090480040B9000010C906846FFF779
:10145000E3F90F200D900320CDE90E041094012133
:101460000DA81194FFF778F812B010BD007000407D
:101470000F48016841F4807101600D4908310A6824
:101480000C4B1A400A6002680B4B1A40026002685B
:1014900022F480220260086820F47D0008600020A9
:1014A000091D086005494FF00060086070470000A2
:1014B000003802400CC0FF88FEFFFEEE08ED00E0A1
:1014C00010B590F83910222903D0322901D002201A
:1014D00010BD8168B1F5805F11D0016900290168F4
:1014E0001FD0496801F07F03816A4A1C82620B7039
:1014F000C18D491E0904090CC18518D030E002696C
:10150000816A002A0268526805D0D2B20A80816AD4
:10151000491C8162ECE7C2F308020A80816A891CD7
:10152000F7E74A68816A4B1C83620A70E0E701684A
:10153000CA6822F02002CA6090F83910322911D00E
:101540000168CA6822F48072CA6001684A6922F0A0
:1015500001024A615FF0010180F83910FFF728FEAF
:10156000002010BD1221F7E72DE9F0410446006884
:101570000169E26821F44051114301612169A068C9
:10158000E26908436169114308432168CA6849F266
:101590000C639A430243CA6020684169A26921F43E
:1015A000407111434161E1696425B1F5004F9548EF
:1015B00021684FF032083DD081427AD1FFF7CEF852
:1015C00000EBC00101EB001061688900B0FBF1F68F
:1015D000FFF7C4F800EBC00101EB0010616889005F
:1015E000B0FBF1F0B0FBF5F06FF01801484306EBEB
:1015F000800108EB0110B0FBF5F000F0F006FFF7FA
:10160000ADF800EBC00101EB001061688900B0FB90
:10161000F1F0B0FBF5F006EB0016FFF79FF800EBDA
:10162000C00101EB001061688900B0FBF1F7FFF722
:1016300095F8D0E081423DD1FFF790F800EBC00172
:1016400001EB001061684900B0FBF1F0B0FBF5F070
:101650000601FFF783F800EBC00101EB00106168A1
:101660004900B0FBF1F7FFF779F800EBC00101EB9F
:10167000001061684900B0FBF1F0B0FBF5F06FF0CD
:101680001801484307EB800108EBC100B0FBF5F0FF
:1016900000F0F80006EB4006FFF760F800EBC00131
:1016A00001EB001061684900B0FBF1F7FFF756F855
:1016B0003CE055E0FFF73AF800EBC00101EB001009
:1016C00061684900B0FBF1F0B0FBF5F00601FFF7EF
:1016D0002DF800EBC00101EB001061684900B0FB80
:1016E000F1F7FFF723F800EBC00101EB0010616890
:1016F0004900B0FBF1F0B0FBF5F06FF01801484382
:1017000007EB800108EBC100B0FBF5F000F0F8003A
:1017100006EB4006FFF70AF800EBC00101EB0010F2
:1017200061684900B0FBF1F7FFF700F800EBC0017A
:1017300001EB001061684900B0FBF1F0B0FBF5F07F
:101740006FF01801484307EB800108EBC100B0FBC4
:10175000F5F000F00700216830448860BDE8F081B2
:10176000FEF7E4FF00EBC00101EB001061688900A7
:10177000B0FBF1F6FEF7DAFF00EBC00101EB001061
:1017800061688900B0FBF1F0B0FBF5F06FF0180173
:10179000484306EB800108EB0110B0FBF5F000F0C8
:1017A000F006FEF7C3FF00EBC00101EB001061681B
:1017B0008900B0FBF1F0B0FBF5F006EB0016FEF788
:1017C000B5FF00EBC00101EB001061688900B0FBC0
:1017D000F1F7FEF7ABFF00EBC00101EB0010616811
:1017E0008900B0FBF1F0B0FBF5F06FF01801484351
:1017F00007EB800108EB0110B0FBF5F000F00F00E3
:10180000A9E700000038014090F83910122903D0F0
:10181000322901D0022070478168B1F5805F016AEA
:101820000BD04A1C0262026809785160C18C491EC3
:101830000904090CC1840ED017E009880268C1F3BD
:101840000801516001690029016A02D0491C016246
:10185000ECE7891CFBE70168CA6822F08002CA60D5
:101860000068C16841F04001C160002070472DE967
:10187000F0471D4690460E460446FEF7DDFD07463E
:101880005FEA08004FF000094FF0010808D030E08F
:10189000681C05D095B1FEF7CFFDC01BA8420DD83E
:1018A0002068006836EA0000F2D127E0681C20D0EA
:1018B00025B1FEF7C1FDC01BA8421AD92068C16836
:1018C00021F08001C1602068C16821F02001C16061
:1018D0002068C16821F48071C1602068416921F0ED
:1018E0000101416184F8398084F838900320BDE813
:1018F000F0872068006836EA0000D7D00020F6E7BD
:101900000148FFF747BB000074000020FEE702E03B
:1019100008C8121F08C1002AFAD17047704700207A
:1019200001E001C1121F002AFBD1704770B504000D
:1019300005D0164E3068844209D1002070BD502079
:1019400080F31188BFF34F8FBFF36F8FFEE700F076
:101950004DFB656900F06AFB706B854202D0B06B8D
:10196000854201D1022070BD0948854204D1A06A98
:101970000028F7D1032070BD05481438854202D0F5
:101980000DB1012070BD042070BD000014000020C6
:101990009C0100200F4C10490A22A1F14000FFF7E2
:1019A000D1FB20780028606808D0FFF7BFFF607087
:1019B00003280BD1606800F0B1FB07E0FFF7B6FF2A
:1019C0006070012802D1606800F01AFC012000F06C
:1019D00053F8E0E700000020B40000208AB0FEF7D2
:1019E00039FDFFF715FDFFF761FC1A4818490C2275
:1019F00001604FF4E131416000218160C160C0E9C4
:101A000004128161C161FFF732FB12490A224031A1
:101A10001048FFF797FB10A0FEF724FC1422114991
:101A20006846FEF7E7FB0021684600F03BF80E4CE5
:101A30000C4914226060143105A8FEF7DBFB00217D
:101A400005A800F02FF8A06000F01DF8FEE70000E8
:101A500000440040740000206A6A6A6A6A6A0D0ADB
:101A600000000000D42500080000002001460020EE
:101A7000842900D0C81C704710B500B9012000F0BF
:101A800027FB002010BD10B500F086FB002010BD24
:101A900010B500F0CBFC012803D0BDE8104000F0E9
:101AA00083BC10BD3EB504460D46B0F90800FFF7F3
:101AB000DDFF02A9CDE90001208A2B4682B2D4E9DC
:101AC000001000F087FC012801D000203EBD0298E4
:101AD0003EBD00002DE9F041184C0F460546E66872
:101AE0002068001D00F032FA38B9206890F82C10F8
:101AF00001208840216981432161681C07D137B1E9
:101B00002168BDE8F0410E48091D00F063BA206865
:101B10003544B5424560216805D2A06BBDE8F0416F
:101B2000091D00F03FBA606B091D00F03BFAA06A86
:101B3000854200D2A562BDE8F081000014000020BB
:101B40009C0100202DE9F041054600F04FFA2E4C93
:101B5000A068401CA06020682C4F10B1606940B3A1
:101B60002DE02560A068012829D1002606EB86001B
:101B700007EB800000F008FA761C072EF6D3234806
:101B80008C3000F001FA2148A03000F0FDF91F4828
:101B9000B43000F0F9F91D48C83000F0F5F91B48E1
:101BA000DC3000F0F1F919488C3060631430A06328
:101BB00005E02068E96AC06A884200D82560606A4A
:101BC000401C6062E96A012022698840104320615C
:101BD00001EB810007EB8000291D00F0FBF900F00C
:101BE00025FA606900280CD02068E96AC06A88423A
:101BF00007D207494FF080500860BFF34F8FBFF303
:101C00006F8FBDE8F081000014000020C0000020AC
:101C100004ED00E070B5114E114C17E000F048FBE8
:101C20003068B8B100F074FC00F0E0F9F068C56805
:101C3000281D00F08BF9A068401EA0606068401E5F
:101C4000606000F0F3F9284600F00CF860680028A6
:101C5000E4D170BD00F05CFCF8E7000088010020D2
:101C60001400002010B50446006B00F0F3F9204684
:101C7000BDE8104000F0EEB910484FF44061420753
:101C800006D0C01D0D4920F00700411AC1F5406182
:101C90000B4A00230144C2E900030839103A21F03D
:101CA000070111604B600B600B1AC0E900139360D1
:101CB0004FF000405360D06070470000B00100203A
:101CC00060000020074C4FF08056074DFFF7A2FF41
:101CD00020680128FAD92E60BFF34F8FBFF36F8FB2
:101CE000F4E70000C000002004ED00E02DE9F0471B
:101CF0000E46DDE909841746824691009946089D03
:101D0000A522206BFEF788FA6FF00301206B01EB30
:101D10008701084420F00707780707D0502080F398
:101D20001188BFF34F8FBFF36F8FFEE72218315C2E
:101D300082F83410315C11B1401C1028F6D3002613
:101D400084F84360072D00D30625E562C4E91156E7
:101D5000201D00F024F904F1180000F020F924619E
:101D6000C5F107006462A061E66484F850604A46E9
:101D70005146384600F0D8F82060B8F1000F01D085
:101D8000C8F80040BDE8F08730B5114900E01146C1
:101D90000A688242FBD34B685C18844203D14068D6
:101DA00018444860084643681C18944209D1084CFE
:101DB000103C2468A24209D052681A4442600A6862
:101DC00012680260814200D0086030BD0460F9E70B
:101DD000600000200648416B096829B1416BC96861
:101DE000C9684968816270474FF0FF31FAE7000027
:101DF0001400002008484068401C4FF0500080F359
:101E0000118804D0BFF34F8FBFF36F8FFEE7BFF38E
:101E10004F8FBFF36F8FFEE768000020002150B1A5
:101E20000A4B42699A420FD1806AA3F1280290427C
:101E30000AD040B108E0502080F31188BFF34F8FE3
:101E4000BFF36F8FFEE70121084670479C01002019
:101E50002DE9F0410546002700F02AFA314E30689E
:101E600008B9FFF709FFF06805424BD1C5B3083543
:101E700068070ED005F00700C0F1080005446807A8
:101E800007D0502080F31188BFF34F8FBFF36F8FBF
:101E9000FEE72DB37068854234D8224810300146E1
:101EA0000C6801E020460C466168A94202D2216814
:101EB0000029F7D131688C4224D00768216801607D
:101EC00060680837411B10290FD96019420708D0F4
:101ED000502080F31188BFF34F8FBFF36F8FFEE761
:101EE00010E041606560FFF74FFF61687068401A5D
:101EF0007060B268904200D2B060F0680143002088
:101F0000C4E9000100F004FB780707D0502080F3FB
:101F10001188BFF34F8FBFF36F8FFEE73846BDE8E0
:101F2000F08100005000002010B5031F4FF08074B6
:101F30001C601B1F21F001011960191F024B0B606F
:101F4000143940380A6010BDF51D0008D0E901328F
:101F500001699A60D0E901235A604A68824201D13E
:101F600082684A60002202610868401E086070476B
:101F700001A0FEF777B900005461736B4F76656678
:101F80006C6F770D0A00000000F108014FF0FF327E
:101F9000C0E90112C16001610021016070470021A8
:101FA0000161704730B50B685A1C02D000F108027D
:101FB00002E0026904E02246546825689D42FAD98D
:101FC00053684B6099608A60516008610168491CE0
:101FD000016030BD42684A6093688B6093685960C5
:101FE000916008610168491C01607047502080F3CE
:101FF0001188BFF34F8FBFF36F8F0A494868401CA9
:10200000486001280CD10848006810F0FF0F07D085
:10201000502080F31188BFF34F8FBFF36F8FFEE71F
:10202000704700006800002004ED00E0084948689F
:1020300028B1401E486001D180F3118870475020BC
:1020400080F31188BFF34F8FBFF36F8FFEE700005F
:102050006800002070B5002827D0144DA0F10804B6
:102060006168E868014207D1502080F31188BFF30E
:102070004F8FBFF36F8FFEE722683AB1502080F395
:102080001188BFF34F8FBFF36F8FFEE7814361600D
:1020900000F00EF960686968084468602046FFF740
:1020A00073FEBDE8704000F033BA70BD50000020F0
:1020B00006484FF47A710068B0FBF1F14FF0E02070
:1020C000491E416107210161704700001000002096
:1020D00010B5020014D00F48006B38B1502080F3C7
:1020E0001188BFF34F8FBFF36F8FFEE700F0E0F86A
:1020F00000211046FFF7EEFC00F00AFA002807D195
:1021000005494FF080500860BFF34F8FBFF36F8FCA
:1021100010BD00001400002004ED00E070B50400C4
:102120002BD01A4D286884422FD0FFF75FFF20463E
:10213000FFF774FEE8B1201DFFF708FFE06A0121F8
:102140002A69814011432961114900EB800001EBAC
:102150008000211DFFF73EFFE06A2968C96A8842B6
:1021600007D30C494FF080500860BFF34F8FBFF387
:102170006F8FBDE87040FFF759BF502080F3118882
:10218000BFF34F8FBFF36F8FFEE770BD14000020C9
:10219000C000002004ED00E01CB515480024CDE986
:1021A00000402346802213A1144800F013F90128AF
:1021B00009D0401C1AD1502080F31188BFF34F8FF3
:1021C000BFF36F8FFEE7502080F31188BFF34F8F6E
:1021D000BFF36F8F06484FF0FF312C388162012129
:1021E0004161C460BDE81C4000F0A4B81CBD000003
:1021F0004000002049444C4500000000C51C000878
:1022000070B50446FFF7F2FE264D04B92C68201D78
:10221000FFF79CFE58B9E06A234A00EB800152F8B0
:10222000211021B901218140286988432861A06AD1
:1022300018B104F11800FFF789FE1B48211DDC309E
:10224000FFF7C8FEFFF7F2FE686928B1FFF7CEFE80
:10225000FFF7C0FDFFF7EAFE2868844213D16869E2
:1022600090B1286B38B1502080F31188BFF34F8FA5
:10227000BFF36F8FFEE70D494FF080500860BFF34A
:102280004F8FBFF36F8F70BD0748A968DC300068BF
:10229000884202D10020286070BDBDE8704000F087
:1022A0000FB8000014000020C000002004ED00E082
:1022B0000248016B491C01637047000014000020B4
:1022C00010B51A4C206B10B10120E06110BD002048
:1022D000E061206821680068096B884204D82168A1
:1022E00020683431FFF744FE20691149B0FA80F0CC
:1022F000C0F11F0000EB800051F820206AB101EB13
:10230000800000F10802416849684160914201D1B2
:1023100049684160C868206010BD502080F3118872
:10232000BFF34F8FBFF36F8FFEE700001400002054
:10233000C00000201CB5194908780190FF200870E2
:1023400008788DF800009DF80000154A00F0500054
:1023500010700720906005E09DF800305B008DF85C
:102360000030401E9DF800301B06F5D4000200F43A
:10237000E0609060019808700A48016841F47001BB
:102380000160016841F070410160FFF791FE00209B
:102390005060FDF7E3FE00201CBD000000E400E0FB
:1023A0006800002020ED00E010B5502080F3118877
:1023B000BFF34F8FBFF36F8F00F046F818B1044999
:1023C0004FF080500860002080F3118810BD00009D
:1023D00004ED00E02DE9FF5F8346DDE90E879946B5
:1023E00016468A469000FFF733FD05001AD05420A8
:1023F000FFF72EFD040012D025630021CDE9024134
:10240000CDE900874B46324651465846FFF76EFCF1
:102410002046FFF797FB012004B0BDE8F09F284657
:10242000FFF718FE4FF0FF30F6E70000054841695E
:1024300019B1006B18B100207047012070470220CD
:1024400070470000140000202DE9F0412E4C0027B9
:10245000206B40B1A069401CA061E06900B1012778
:102460003846BDE8F081E668761CE66013D1606B03
:10247000006838B1502080F31188BFF34F8FBFF34D
:102480006F8FFEE7606BA16B6163A063206A401CE5
:102490002062FFF79FFCA06ADFF87080864209D3B4
:1024A000606B006880B1606BC068C5686868864210
:1024B0000DD2A0622068C06A00EB800158F82100AC
:1024C0000128CAD90127C8E74FF0FF30F1E7281DDE
:1024D000FFF73CFDA86A18B105F11800FFF736FDBB
:1024E000E86A0121226981401143216100EB8001EA
:1024F00008EB8100291DFFF76DFDE86A2168C96AB4
:102500008842CDD30127CBE714000020C000002073
:102510002DE9F0472C4D00242746286B38B1FFF7F2
:1025200065FD286B401E2863286B40B146E05020B3
:1025300080F31188BFF34F8FBFF36F8FFEE7A96859
:10254000224E0120D1B3A6F1B40980463068E8B12B
:10255000F068C46804F11800FFF7F8FC201DFFF7CD
:10256000F5FCE06A2A6908FA00F11143296100EBE1
:10257000800109EB8100211DFFF72CFDE06A29682D
:10258000C96A8842E2D3C5F81C80DFE70CB1FFF7C7
:1025900021FCAC6944B14646FFF756FF00B1EE613D
:1025A000641EF9D10020A861E86938B10849012703
:1025B00038070860BFF34F8FBFF36F8FFFF736FD0B
:1025C0003846BDE8F08700001400002074010020A8
:1025D00004ED00E020260008E913000800000000D8
:1025E00000000000800000002C260008951900085B
:1025F0000200000000000000800000000304060844
:102600000C10182030000000000000000001020340
:10261000040607080900000000010203040000008E
:1026200064656661756C745461736B007561727476
:102630005461736B00000000582600080000002061
:10264000740000000E190008CC2600087400002059
:102650003C1100001E1900080100000000000000ED
:10266000000000000000000068FF1F0000000000E4
:10267000000000000000000000000000000000005A
:10268000000000000000000000000000000000004A
:10269000000000000000000000000000000000003A
:1026A000000000000000000000000000000000002A
:1026B000000000000000000000000000000000001A
:0C26C00000000000AAAAAAAA0000000066
:0400000508000125C9
:00000001FF
